{
  "_format": "hh-sol-artifact-1",
  "contractName": "NFTcontract",
  "sourceName": "contracts/NFTContract.sol",
  "abi": [
    {
      "inputs": [
        {
          "internalType": "string",
          "name": "_name",
          "type": "string"
        },
        {
          "internalType": "string",
          "name": "_symbol",
          "type": "string"
        },
        {
          "internalType": "address",
          "name": "_admin",
          "type": "address"
        }
      ],
      "stateMutability": "nonpayable",
      "type": "constructor"
    },
    {
      "anonymous": false,
      "inputs": [
        {
          "indexed": true,
          "internalType": "address",
          "name": "owner",
          "type": "address"
        },
        {
          "indexed": true,
          "internalType": "address",
          "name": "approved",
          "type": "address"
        },
        {
          "indexed": true,
          "internalType": "uint256",
          "name": "tokenId",
          "type": "uint256"
        }
      ],
      "name": "Approval",
      "type": "event"
    },
    {
      "anonymous": false,
      "inputs": [
        {
          "indexed": true,
          "internalType": "address",
          "name": "owner",
          "type": "address"
        },
        {
          "indexed": true,
          "internalType": "address",
          "name": "operator",
          "type": "address"
        },
        {
          "indexed": false,
          "internalType": "bool",
          "name": "approved",
          "type": "bool"
        }
      ],
      "name": "ApprovalForAll",
      "type": "event"
    },
    {
      "anonymous": false,
      "inputs": [
        {
          "indexed": true,
          "internalType": "address",
          "name": "previousOwner",
          "type": "address"
        },
        {
          "indexed": true,
          "internalType": "address",
          "name": "newOwner",
          "type": "address"
        }
      ],
      "name": "OwnershipTransferred",
      "type": "event"
    },
    {
      "anonymous": false,
      "inputs": [
        {
          "indexed": true,
          "internalType": "address",
          "name": "from",
          "type": "address"
        },
        {
          "indexed": true,
          "internalType": "address",
          "name": "to",
          "type": "address"
        },
        {
          "indexed": true,
          "internalType": "uint256",
          "name": "tokenId",
          "type": "uint256"
        }
      ],
      "name": "Transfer",
      "type": "event"
    },
    {
      "inputs": [
        {
          "internalType": "address",
          "name": "to",
          "type": "address"
        },
        {
          "internalType": "uint256",
          "name": "tokenId",
          "type": "uint256"
        }
      ],
      "name": "approve",
      "outputs": [],
      "stateMutability": "nonpayable",
      "type": "function"
    },
    {
      "inputs": [
        {
          "internalType": "address",
          "name": "owner",
          "type": "address"
        }
      ],
      "name": "balanceOf",
      "outputs": [
        {
          "internalType": "uint256",
          "name": "",
          "type": "uint256"
        }
      ],
      "stateMutability": "view",
      "type": "function"
    },
    {
      "inputs": [
        {
          "internalType": "uint256",
          "name": "_tokenID",
          "type": "uint256"
        }
      ],
      "name": "burn",
      "outputs": [],
      "stateMutability": "nonpayable",
      "type": "function"
    },
    {
      "inputs": [
        {
          "internalType": "uint256",
          "name": "tokenId",
          "type": "uint256"
        }
      ],
      "name": "getApproved",
      "outputs": [
        {
          "internalType": "address",
          "name": "",
          "type": "address"
        }
      ],
      "stateMutability": "view",
      "type": "function"
    },
    {
      "inputs": [
        {
          "internalType": "address",
          "name": "owner",
          "type": "address"
        },
        {
          "internalType": "address",
          "name": "operator",
          "type": "address"
        }
      ],
      "name": "isApprovedForAll",
      "outputs": [
        {
          "internalType": "bool",
          "name": "",
          "type": "bool"
        }
      ],
      "stateMutability": "view",
      "type": "function"
    },
    {
      "inputs": [],
      "name": "name",
      "outputs": [
        {
          "internalType": "string",
          "name": "",
          "type": "string"
        }
      ],
      "stateMutability": "view",
      "type": "function"
    },
    {
      "inputs": [],
      "name": "owner",
      "outputs": [
        {
          "internalType": "address",
          "name": "",
          "type": "address"
        }
      ],
      "stateMutability": "view",
      "type": "function"
    },
    {
      "inputs": [
        {
          "internalType": "uint256",
          "name": "tokenId",
          "type": "uint256"
        }
      ],
      "name": "ownerOf",
      "outputs": [
        {
          "internalType": "address",
          "name": "",
          "type": "address"
        }
      ],
      "stateMutability": "view",
      "type": "function"
    },
    {
      "inputs": [],
      "name": "renounceOwnership",
      "outputs": [],
      "stateMutability": "nonpayable",
      "type": "function"
    },
    {
      "inputs": [
        {
          "internalType": "address",
          "name": "to",
          "type": "address"
        },
        {
          "internalType": "uint256",
          "name": "tokenId",
          "type": "uint256"
        },
        {
          "internalType": "string",
          "name": "uri",
          "type": "string"
        }
      ],
      "name": "safeMint",
      "outputs": [],
      "stateMutability": "nonpayable",
      "type": "function"
    },
    {
      "inputs": [
        {
          "internalType": "address",
          "name": "_from",
          "type": "address"
        },
        {
          "internalType": "address",
          "name": "_to",
          "type": "address"
        },
        {
          "internalType": "uint256",
          "name": "_tokenId",
          "type": "uint256"
        }
      ],
      "name": "safeTransferFrom",
      "outputs": [],
      "stateMutability": "nonpayable",
      "type": "function"
    },
    {
      "inputs": [
        {
          "internalType": "address",
          "name": "_from",
          "type": "address"
        },
        {
          "internalType": "address",
          "name": "_to",
          "type": "address"
        },
        {
          "internalType": "uint256",
          "name": "_tokenId",
          "type": "uint256"
        },
        {
          "internalType": "bytes",
          "name": "data",
          "type": "bytes"
        }
      ],
      "name": "safeTransferFrom",
      "outputs": [],
      "stateMutability": "nonpayable",
      "type": "function"
    },
    {
      "inputs": [
        {
          "internalType": "address",
          "name": "_admin",
          "type": "address"
        }
      ],
      "name": "setAdmin",
      "outputs": [],
      "stateMutability": "nonpayable",
      "type": "function"
    },
    {
      "inputs": [
        {
          "internalType": "address",
          "name": "operator",
          "type": "address"
        },
        {
          "internalType": "bool",
          "name": "approved",
          "type": "bool"
        }
      ],
      "name": "setApprovalForAll",
      "outputs": [],
      "stateMutability": "nonpayable",
      "type": "function"
    },
    {
      "inputs": [
        {
          "internalType": "uint256",
          "name": "_tokenID",
          "type": "uint256"
        },
        {
          "internalType": "string",
          "name": "_URI",
          "type": "string"
        }
      ],
      "name": "setTokenURI",
      "outputs": [],
      "stateMutability": "nonpayable",
      "type": "function"
    },
    {
      "inputs": [
        {
          "internalType": "bytes4",
          "name": "interfaceId",
          "type": "bytes4"
        }
      ],
      "name": "supportsInterface",
      "outputs": [
        {
          "internalType": "bool",
          "name": "",
          "type": "bool"
        }
      ],
      "stateMutability": "view",
      "type": "function"
    },
    {
      "inputs": [],
      "name": "symbol",
      "outputs": [
        {
          "internalType": "string",
          "name": "",
          "type": "string"
        }
      ],
      "stateMutability": "view",
      "type": "function"
    },
    {
      "inputs": [
        {
          "internalType": "uint256",
          "name": "_tokenID",
          "type": "uint256"
        }
      ],
      "name": "tokenURI",
      "outputs": [
        {
          "internalType": "string",
          "name": "",
          "type": "string"
        }
      ],
      "stateMutability": "view",
      "type": "function"
    },
    {
      "inputs": [
        {
          "internalType": "address",
          "name": "_from",
          "type": "address"
        },
        {
          "internalType": "address",
          "name": "_to",
          "type": "address"
        },
        {
          "internalType": "uint256",
          "name": "_tokenID",
          "type": "uint256"
        }
      ],
      "name": "transferFrom",
      "outputs": [],
      "stateMutability": "nonpayable",
      "type": "function"
    },
    {
      "inputs": [
        {
          "internalType": "address",
          "name": "newOwner",
          "type": "address"
        }
      ],
      "name": "transferOwnership",
      "outputs": [],
      "stateMutability": "nonpayable",
      "type": "function"
    }
  ],
  "bytecode": "0x60806040523480156200001157600080fd5b50604051620037f0380380620037f0833981810160405281019062000037919062000457565b8282816000908051906020019062000051929190620001a5565b5080600190805190602001906200006a929190620001a5565b5050506200008d62000081620000d760201b60201c565b620000df60201b60201c565b80600860006101000a81548173ffffffffffffffffffffffffffffffffffffffff021916908373ffffffffffffffffffffffffffffffffffffffff16021790555050505062000555565b600033905090565b6000600760009054906101000a900473ffffffffffffffffffffffffffffffffffffffff16905081600760006101000a81548173ffffffffffffffffffffffffffffffffffffffff021916908373ffffffffffffffffffffffffffffffffffffffff1602179055508173ffffffffffffffffffffffffffffffffffffffff168173ffffffffffffffffffffffffffffffffffffffff167f8be0079c531659141344cd1fd0a4f28419497f9722a3daafe3b4186f6b6457e060405160405180910390a35050565b828054620001b39062000520565b90600052602060002090601f016020900481019282620001d7576000855562000223565b82601f10620001f257805160ff191683800117855562000223565b8280016001018555821562000223579182015b828111156200022257825182559160200191906001019062000205565b5b50905062000232919062000236565b5090565b5b808211156200025157600081600090555060010162000237565b5090565b6000604051905090565b600080fd5b600080fd5b600080fd5b600080fd5b6000601f19601f8301169050919050565b7f4e487b7100000000000000000000000000000000000000000000000000000000600052604160045260246000fd5b620002be8262000273565b810181811067ffffffffffffffff82111715620002e057620002df62000284565b5b80604052505050565b6000620002f562000255565b9050620003038282620002b3565b919050565b600067ffffffffffffffff82111562000326576200032562000284565b5b620003318262000273565b9050602081019050919050565b60005b838110156200035e57808201518184015260208101905062000341565b838111156200036e576000848401525b50505050565b60006200038b620003858462000308565b620002e9565b905082815260208101848484011115620003aa57620003a96200026e565b5b620003b78482856200033e565b509392505050565b600082601f830112620003d757620003d662000269565b5b8151620003e984826020860162000374565b91505092915050565b600073ffffffffffffffffffffffffffffffffffffffff82169050919050565b60006200041f82620003f2565b9050919050565b620004318162000412565b81146200043d57600080fd5b50565b600081519050620004518162000426565b92915050565b6000806000606084860312156200047357620004726200025f565b5b600084015167ffffffffffffffff81111562000494576200049362000264565b5b620004a286828701620003bf565b935050602084015167ffffffffffffffff811115620004c657620004c562000264565b5b620004d486828701620003bf565b9250506040620004e78682870162000440565b9150509250925092565b7f4e487b7100000000000000000000000000000000000000000000000000000000600052602260045260246000fd5b600060028204905060018216806200053957607f821691505b6020821081036200054f576200054e620004f1565b5b50919050565b61328b80620005656000396000f3fe608060405234801561001057600080fd5b506004361061012c5760003560e01c806370a08231116100ad578063b88d4fde11610071578063b88d4fde14610319578063c87b56dd14610335578063cd279c7c14610365578063e985e9c514610381578063f2fde38b146103b15761012c565b806370a0823114610287578063715018a6146102b75780638da5cb5b146102c157806395d89b41146102df578063a22cb465146102fd5761012c565b806323b872dd116100f457806323b872dd146101e757806342842e0e1461020357806342966c681461021f5780636352211e1461023b578063704b6c021461026b5761012c565b806301ffc9a71461013157806306fdde0314610161578063081812fc1461017f578063095ea7b3146101af578063162094c4146101cb575b600080fd5b61014b60048036038101906101469190612018565b6103cd565b6040516101589190612060565b60405180910390f35b6101696104af565b6040516101769190612114565b60405180910390f35b6101996004803603810190610194919061216c565b610541565b6040516101a691906121da565b60405180910390f35b6101c960048036038101906101c49190612221565b610587565b005b6101e560048036038101906101e09190612396565b61069e565b005b61020160048036038101906101fc91906123f2565b61077a565b005b61021d600480360381019061021891906123f2565b61081a565b005b6102396004803603810190610234919061216c565b6108ba565b005b6102556004803603810190610250919061216c565b6108ce565b60405161026291906121da565b60405180910390f35b61028560048036038101906102809190612445565b61097f565b005b6102a1600480360381019061029c9190612445565b610ac2565b6040516102ae9190612481565b60405180910390f35b6102bf610b79565b005b6102c9610b8d565b6040516102d691906121da565b60405180910390f35b6102e7610bb7565b6040516102f49190612114565b60405180910390f35b610317600480360381019061031291906124c8565b610c49565b005b610333600480360381019061032e91906125a9565b610c5f565b005b61034f600480360381019061034a919061216c565b610d01565b60405161035c9190612114565b60405180910390f35b61037f600480360381019061037a919061262c565b610d13565b005b61039b6004803603810190610396919061269b565b610ddf565b6040516103a89190612060565b60405180910390f35b6103cb60048036038101906103c69190612445565b610e73565b005b60007f80ac58cd000000000000000000000000000000000000000000000000000000007bffffffffffffffffffffffffffffffffffffffffffffffffffffffff1916827bffffffffffffffffffffffffffffffffffffffffffffffffffffffff1916148061049857507f5b5e139f000000000000000000000000000000000000000000000000000000007bffffffffffffffffffffffffffffffffffffffffffffffffffffffff1916827bffffffffffffffffffffffffffffffffffffffffffffffffffffffff1916145b806104a857506104a782610ef6565b5b9050919050565b6060600080546104be9061270a565b80601f01602080910402602001604051908101604052809291908181526020018280546104ea9061270a565b80156105375780601f1061050c57610100808354040283529160200191610537565b820191906000526020600020905b81548152906001019060200180831161051a57829003601f168201915b5050505050905090565b600061054c82610f60565b6004600083815260200190815260200160002060009054906101000a900473ffffffffffffffffffffffffffffffffffffffff169050919050565b6000610592826108ce565b90508073ffffffffffffffffffffffffffffffffffffffff168373ffffffffffffffffffffffffffffffffffffffff1603610602576040517f08c379a00000000000000000000000000000000000000000000000000000000081526004016105f9906127ad565b60405180910390fd5b8073ffffffffffffffffffffffffffffffffffffffff16610621610fab565b73ffffffffffffffffffffffffffffffffffffffff161480610650575061064f8161064a610fab565b610ddf565b5b61068f576040517f08c379a00000000000000000000000000000000000000000000000000000000081526004016106869061283f565b60405180910390fd5b6106998383610fb3565b505050565b600860009054906101000a900473ffffffffffffffffffffffffffffffffffffffff1673ffffffffffffffffffffffffffffffffffffffff163373ffffffffffffffffffffffffffffffffffffffff16148061072d57506106fe826108ce565b73ffffffffffffffffffffffffffffffffffffffff163373ffffffffffffffffffffffffffffffffffffffff16145b61076c576040517f08c379a0000000000000000000000000000000000000000000000000000000008152600401610763906128d1565b60405180910390fd5b610776828261106c565b5050565b600860009054906101000a900473ffffffffffffffffffffffffffffffffffffffff1673ffffffffffffffffffffffffffffffffffffffff163373ffffffffffffffffffffffffffffffffffffffff161461080a576040517f08c379a00000000000000000000000000000000000000000000000000000000081526004016108019061293d565b60405180910390fd5b6108158383836110e0565b505050565b600860009054906101000a900473ffffffffffffffffffffffffffffffffffffffff1673ffffffffffffffffffffffffffffffffffffffff163373ffffffffffffffffffffffffffffffffffffffff16146108aa576040517f08c379a00000000000000000000000000000000000000000000000000000000081526004016108a19061293d565b60405180910390fd5b6108b583838361081a565b505050565b6108c2611346565b6108cb816113c4565b50565b6000806002600084815260200190815260200160002060009054906101000a900473ffffffffffffffffffffffffffffffffffffffff169050600073ffffffffffffffffffffffffffffffffffffffff168173ffffffffffffffffffffffffffffffffffffffff1603610976576040517f08c379a000000000000000000000000000000000000000000000000000000000815260040161096d906129a9565b60405180910390fd5b80915050919050565b600860009054906101000a900473ffffffffffffffffffffffffffffffffffffffff1673ffffffffffffffffffffffffffffffffffffffff163373ffffffffffffffffffffffffffffffffffffffff1614610a0f576040517f08c379a0000000000000000000000000000000000000000000000000000000008152600401610a069061293d565b60405180910390fd5b600073ffffffffffffffffffffffffffffffffffffffff168173ffffffffffffffffffffffffffffffffffffffff1603610a7e576040517f08c379a0000000000000000000000000000000000000000000000000000000008152600401610a7590612a15565b60405180910390fd5b80600860006101000a81548173ffffffffffffffffffffffffffffffffffffffff021916908373ffffffffffffffffffffffffffffffffffffffff16021790555050565b60008073ffffffffffffffffffffffffffffffffffffffff168273ffffffffffffffffffffffffffffffffffffffff1603610b32576040517f08c379a0000000000000000000000000000000000000000000000000000000008152600401610b2990612aa7565b60405180910390fd5b600360008373ffffffffffffffffffffffffffffffffffffffff1673ffffffffffffffffffffffffffffffffffffffff168152602001908152602001600020549050919050565b610b81611346565b610b8b6000611417565b565b6000600760009054906101000a900473ffffffffffffffffffffffffffffffffffffffff16905090565b606060018054610bc69061270a565b80601f0160208091040260200160405190810160405280929190818152602001828054610bf29061270a565b8015610c3f5780601f10610c1457610100808354040283529160200191610c3f565b820191906000526020600020905b815481529060010190602001808311610c2257829003601f168201915b5050505050905090565b610c5b610c54610fab565b83836114dd565b5050565b600860009054906101000a900473ffffffffffffffffffffffffffffffffffffffff1673ffffffffffffffffffffffffffffffffffffffff163373ffffffffffffffffffffffffffffffffffffffff1614610cef576040517f08c379a0000000000000000000000000000000000000000000000000000000008152600401610ce69061293d565b60405180910390fd5b610cfb84848484610c5f565b50505050565b6060610d0c82611649565b9050919050565b610d1b611346565b610d25838361175b565b610d2f828261106c565b60405180604001604052806001151581526020018473ffffffffffffffffffffffffffffffffffffffff168152506009600084815260200190815260200160002060008201518160000160006101000a81548160ff02191690831515021790555060208201518160000160016101000a81548173ffffffffffffffffffffffffffffffffffffffff021916908373ffffffffffffffffffffffffffffffffffffffff160217905550905050505050565b6000600560008473ffffffffffffffffffffffffffffffffffffffff1673ffffffffffffffffffffffffffffffffffffffff16815260200190815260200160002060008373ffffffffffffffffffffffffffffffffffffffff1673ffffffffffffffffffffffffffffffffffffffff16815260200190815260200160002060009054906101000a900460ff16905092915050565b610e7b611346565b600073ffffffffffffffffffffffffffffffffffffffff168173ffffffffffffffffffffffffffffffffffffffff1603610eea576040517f08c379a0000000000000000000000000000000000000000000000000000000008152600401610ee190612b39565b60405180910390fd5b610ef381611417565b50565b60007f01ffc9a7000000000000000000000000000000000000000000000000000000007bffffffffffffffffffffffffffffffffffffffffffffffffffffffff1916827bffffffffffffffffffffffffffffffffffffffffffffffffffffffff1916149050919050565b610f6981611779565b610fa8576040517f08c379a0000000000000000000000000000000000000000000000000000000008152600401610f9f906129a9565b60405180910390fd5b50565b600033905090565b816004600083815260200190815260200160002060006101000a81548173ffffffffffffffffffffffffffffffffffffffff021916908373ffffffffffffffffffffffffffffffffffffffff160217905550808273ffffffffffffffffffffffffffffffffffffffff16611026836108ce565b73ffffffffffffffffffffffffffffffffffffffff167f8c5be1e5ebec7d5bd14f71427d1e84f3dd0314c0f7b2291e5b200ac8c7c3b92560405160405180910390a45050565b61107582611779565b6110b4576040517f08c379a00000000000000000000000000000000000000000000000000000000081526004016110ab90612bcb565b60405180910390fd5b806006600084815260200190815260200160002090805190602001906110db929190611ec9565b505050565b8273ffffffffffffffffffffffffffffffffffffffff16611100826108ce565b73ffffffffffffffffffffffffffffffffffffffff1614611156576040517f08c379a000000000000000000000000000000000000000000000000000000000815260040161114d90612c5d565b60405180910390fd5b600073ffffffffffffffffffffffffffffffffffffffff168273ffffffffffffffffffffffffffffffffffffffff16036111c5576040517f08c379a00000000000000000000000000000000000000000000000000000000081526004016111bc90612cef565b60405180910390fd5b6111d08383836117e5565b6111db600082610fb3565b6001600360008573ffffffffffffffffffffffffffffffffffffffff1673ffffffffffffffffffffffffffffffffffffffff168152602001908152602001600020600082825461122b9190612d3e565b925050819055506001600360008473ffffffffffffffffffffffffffffffffffffffff1673ffffffffffffffffffffffffffffffffffffffff16815260200190815260200160002060008282546112829190612d72565b92505081905550816002600083815260200190815260200160002060006101000a81548173ffffffffffffffffffffffffffffffffffffffff021916908373ffffffffffffffffffffffffffffffffffffffff160217905550808273ffffffffffffffffffffffffffffffffffffffff168473ffffffffffffffffffffffffffffffffffffffff167fddf252ad1be2c89b69c2b068fc378daa952ba7f163c4a11628f55a4df523b3ef60405160405180910390a46113418383836117ea565b505050565b61134e610fab565b73ffffffffffffffffffffffffffffffffffffffff1661136c610b8d565b73ffffffffffffffffffffffffffffffffffffffff16146113c2576040517f08c379a00000000000000000000000000000000000000000000000000000000081526004016113b990612e14565b60405180910390fd5b565b6113cd816117ef565b60006006600083815260200190815260200160002080546113ed9061270a565b905014611414576006600082815260200190815260200160002060006114139190611f4f565b5b50565b6000600760009054906101000a900473ffffffffffffffffffffffffffffffffffffffff16905081600760006101000a81548173ffffffffffffffffffffffffffffffffffffffff021916908373ffffffffffffffffffffffffffffffffffffffff1602179055508173ffffffffffffffffffffffffffffffffffffffff168173ffffffffffffffffffffffffffffffffffffffff167f8be0079c531659141344cd1fd0a4f28419497f9722a3daafe3b4186f6b6457e060405160405180910390a35050565b8173ffffffffffffffffffffffffffffffffffffffff168373ffffffffffffffffffffffffffffffffffffffff160361154b576040517f08c379a000000000000000000000000000000000000000000000000000000000815260040161154290612e80565b60405180910390fd5b80600560008573ffffffffffffffffffffffffffffffffffffffff1673ffffffffffffffffffffffffffffffffffffffff16815260200190815260200160002060008473ffffffffffffffffffffffffffffffffffffffff1673ffffffffffffffffffffffffffffffffffffffff16815260200190815260200160002060006101000a81548160ff0219169083151502179055508173ffffffffffffffffffffffffffffffffffffffff168373ffffffffffffffffffffffffffffffffffffffff167f17307eab39ab6107e8899845ad3d59bd9653f200f220920489ca2b5937696c318360405161163c9190612060565b60405180910390a3505050565b606061165482610f60565b60006006600084815260200190815260200160002080546116749061270a565b80601f01602080910402602001604051908101604052809291908181526020018280546116a09061270a565b80156116ed5780601f106116c2576101008083540402835291602001916116ed565b820191906000526020600020905b8154815290600101906020018083116116d057829003601f168201915b5050505050905060006116fe61190c565b90506000815103611713578192505050611756565b600082511115611748578082604051602001611730929190612edc565b60405160208183030381529060405292505050611756565b61175184611923565b925050505b919050565b61177582826040518060200160405280600081525061198b565b5050565b60008073ffffffffffffffffffffffffffffffffffffffff166002600084815260200190815260200160002060009054906101000a900473ffffffffffffffffffffffffffffffffffffffff1673ffffffffffffffffffffffffffffffffffffffff1614159050919050565b505050565b505050565b60006117fa826108ce565b9050611808816000846117e5565b611813600083610fb3565b6001600360008373ffffffffffffffffffffffffffffffffffffffff1673ffffffffffffffffffffffffffffffffffffffff16815260200190815260200160002060008282546118639190612d3e565b925050819055506002600083815260200190815260200160002060006101000a81549073ffffffffffffffffffffffffffffffffffffffff021916905581600073ffffffffffffffffffffffffffffffffffffffff168273ffffffffffffffffffffffffffffffffffffffff167fddf252ad1be2c89b69c2b068fc378daa952ba7f163c4a11628f55a4df523b3ef60405160405180910390a4611908816000846117ea565b5050565b606060405180602001604052806000815250905090565b606061192e82610f60565b600061193861190c565b905060008151116119585760405180602001604052806000815250611983565b80611962846119e6565b604051602001611973929190612edc565b6040516020818303038152906040525b915050919050565b6119958383611b46565b6119a26000848484611d1f565b6119e1576040517f08c379a00000000000000000000000000000000000000000000000000000000081526004016119d890612f72565b60405180910390fd5b505050565b606060008203611a2d576040518060400160405280600181526020017f30000000000000000000000000000000000000000000000000000000000000008152509050611b41565b600082905060005b60008214611a5f578080611a4890612f92565b915050600a82611a589190613009565b9150611a35565b60008167ffffffffffffffff811115611a7b57611a7a61226b565b5b6040519080825280601f01601f191660200182016040528015611aad5781602001600182028036833780820191505090505b5090505b60008514611b3a57600182611ac69190612d3e565b9150600a85611ad5919061303a565b6030611ae19190612d72565b60f81b818381518110611af757611af661306b565b5b60200101907effffffffffffffffffffffffffffffffffffffffffffffffffffffffffffff1916908160001a905350600a85611b339190613009565b9450611ab1565b8093505050505b919050565b600073ffffffffffffffffffffffffffffffffffffffff168273ffffffffffffffffffffffffffffffffffffffff1603611bb5576040517f08c379a0000000000000000000000000000000000000000000000000000000008152600401611bac906130e6565b60405180910390fd5b611bbe81611779565b15611bfe576040517f08c379a0000000000000000000000000000000000000000000000000000000008152600401611bf590613152565b60405180910390fd5b611c0a600083836117e5565b6001600360008473ffffffffffffffffffffffffffffffffffffffff1673ffffffffffffffffffffffffffffffffffffffff1681526020019081526020016000206000828254611c5a9190612d72565b92505081905550816002600083815260200190815260200160002060006101000a81548173ffffffffffffffffffffffffffffffffffffffff021916908373ffffffffffffffffffffffffffffffffffffffff160217905550808273ffffffffffffffffffffffffffffffffffffffff16600073ffffffffffffffffffffffffffffffffffffffff167fddf252ad1be2c89b69c2b068fc378daa952ba7f163c4a11628f55a4df523b3ef60405160405180910390a4611d1b600083836117ea565b5050565b6000611d408473ffffffffffffffffffffffffffffffffffffffff16611ea6565b15611e99578373ffffffffffffffffffffffffffffffffffffffff1663150b7a02611d69610fab565b8786866040518563ffffffff1660e01b8152600401611d8b94939291906131c7565b6020604051808303816000875af1925050508015611dc757506040513d601f19601f82011682018060405250810190611dc49190613228565b60015b611e49573d8060008114611df7576040519150601f19603f3d011682016040523d82523d6000602084013e611dfc565b606091505b506000815103611e41576040517f08c379a0000000000000000000000000000000000000000000000000000000008152600401611e3890612f72565b60405180910390fd5b805181602001fd5b63150b7a0260e01b7bffffffffffffffffffffffffffffffffffffffffffffffffffffffff1916817bffffffffffffffffffffffffffffffffffffffffffffffffffffffff191614915050611e9e565b600190505b949350505050565b6000808273ffffffffffffffffffffffffffffffffffffffff163b119050919050565b828054611ed59061270a565b90600052602060002090601f016020900481019282611ef75760008555611f3e565b82601f10611f1057805160ff1916838001178555611f3e565b82800160010185558215611f3e579182015b82811115611f3d578251825591602001919060010190611f22565b5b509050611f4b9190611f8f565b5090565b508054611f5b9061270a565b6000825580601f10611f6d5750611f8c565b601f016020900490600052602060002090810190611f8b9190611f8f565b5b50565b5b80821115611fa8576000816000905550600101611f90565b5090565b6000604051905090565b600080fd5b600080fd5b60007fffffffff0000000000000000000000000000000000000000000000000000000082169050919050565b611ff581611fc0565b811461200057600080fd5b50565b60008135905061201281611fec565b92915050565b60006020828403121561202e5761202d611fb6565b5b600061203c84828501612003565b91505092915050565b60008115159050919050565b61205a81612045565b82525050565b60006020820190506120756000830184612051565b92915050565b600081519050919050565b600082825260208201905092915050565b60005b838110156120b557808201518184015260208101905061209a565b838111156120c4576000848401525b50505050565b6000601f19601f8301169050919050565b60006120e68261207b565b6120f08185612086565b9350612100818560208601612097565b612109816120ca565b840191505092915050565b6000602082019050818103600083015261212e81846120db565b905092915050565b6000819050919050565b61214981612136565b811461215457600080fd5b50565b60008135905061216681612140565b92915050565b60006020828403121561218257612181611fb6565b5b600061219084828501612157565b91505092915050565b600073ffffffffffffffffffffffffffffffffffffffff82169050919050565b60006121c482612199565b9050919050565b6121d4816121b9565b82525050565b60006020820190506121ef60008301846121cb565b92915050565b6121fe816121b9565b811461220957600080fd5b50565b60008135905061221b816121f5565b92915050565b6000806040838503121561223857612237611fb6565b5b60006122468582860161220c565b925050602061225785828601612157565b9150509250929050565b600080fd5b600080fd5b7f4e487b7100000000000000000000000000000000000000000000000000000000600052604160045260246000fd5b6122a3826120ca565b810181811067ffffffffffffffff821117156122c2576122c161226b565b5b80604052505050565b60006122d5611fac565b90506122e1828261229a565b919050565b600067ffffffffffffffff8211156123015761230061226b565b5b61230a826120ca565b9050602081019050919050565b82818337600083830152505050565b6000612339612334846122e6565b6122cb565b90508281526020810184848401111561235557612354612266565b5b612360848285612317565b509392505050565b600082601f83011261237d5761237c612261565b5b813561238d848260208601612326565b91505092915050565b600080604083850312156123ad576123ac611fb6565b5b60006123bb85828601612157565b925050602083013567ffffffffffffffff8111156123dc576123db611fbb565b5b6123e885828601612368565b9150509250929050565b60008060006060848603121561240b5761240a611fb6565b5b60006124198682870161220c565b935050602061242a8682870161220c565b925050604061243b86828701612157565b9150509250925092565b60006020828403121561245b5761245a611fb6565b5b60006124698482850161220c565b91505092915050565b61247b81612136565b82525050565b60006020820190506124966000830184612472565b92915050565b6124a581612045565b81146124b057600080fd5b50565b6000813590506124c28161249c565b92915050565b600080604083850312156124df576124de611fb6565b5b60006124ed8582860161220c565b92505060206124fe858286016124b3565b9150509250929050565b600067ffffffffffffffff8211156125235761252261226b565b5b61252c826120ca565b9050602081019050919050565b600061254c61254784612508565b6122cb565b90508281526020810184848401111561256857612567612266565b5b612573848285612317565b509392505050565b600082601f8301126125905761258f612261565b5b81356125a0848260208601612539565b91505092915050565b600080600080608085870312156125c3576125c2611fb6565b5b60006125d18782880161220c565b94505060206125e28782880161220c565b93505060406125f387828801612157565b925050606085013567ffffffffffffffff81111561261457612613611fbb565b5b6126208782880161257b565b91505092959194509250565b60008060006060848603121561264557612644611fb6565b5b60006126538682870161220c565b935050602061266486828701612157565b925050604084013567ffffffffffffffff81111561268557612684611fbb565b5b61269186828701612368565b9150509250925092565b600080604083850312156126b2576126b1611fb6565b5b60006126c08582860161220c565b92505060206126d18582860161220c565b9150509250929050565b7f4e487b7100000000000000000000000000000000000000000000000000000000600052602260045260246000fd5b6000600282049050600182168061272257607f821691505b602082108103612735576127346126db565b5b50919050565b7f4552433732313a20617070726f76616c20746f2063757272656e74206f776e6560008201527f7200000000000000000000000000000000000000000000000000000000000000602082015250565b6000612797602183612086565b91506127a28261273b565b604082019050919050565b600060208201905081810360008301526127c68161278a565b9050919050565b7f4552433732313a20617070726f76652063616c6c6572206973206e6f7420746f60008201527f6b656e206f776e6572206e6f7220617070726f76656420666f7220616c6c0000602082015250565b6000612829603e83612086565b9150612834826127cd565b604082019050919050565b600060208201905081810360008301526128588161281c565b9050919050565b7f43616c6c6572206973206e6f74207468652061646d696e206e6f72207468652060008201527f6f776e6572206f6620746f6b656e000000000000000000000000000000000000602082015250565b60006128bb602e83612086565b91506128c68261285f565b604082019050919050565b600060208201905081810360008301526128ea816128ae565b9050919050565b7f43616c6c6572206973206e6f74207468652061646d696e000000000000000000600082015250565b6000612927601783612086565b9150612932826128f1565b602082019050919050565b600060208201905081810360008301526129568161291a565b9050919050565b7f4552433732313a20696e76616c696420746f6b656e2049440000000000000000600082015250565b6000612993601883612086565b915061299e8261295d565b602082019050919050565b600060208201905081810360008301526129c281612986565b9050919050565b7f5a65726f20616464726573732063616e27742062652061646d696e0000000000600082015250565b60006129ff601b83612086565b9150612a0a826129c9565b602082019050919050565b60006020820190508181036000830152612a2e816129f2565b9050919050565b7f4552433732313a2061646472657373207a65726f206973206e6f74206120766160008201527f6c6964206f776e65720000000000000000000000000000000000000000000000602082015250565b6000612a91602983612086565b9150612a9c82612a35565b604082019050919050565b60006020820190508181036000830152612ac081612a84565b9050919050565b7f4f776e61626c653a206e6577206f776e657220697320746865207a65726f206160008201527f6464726573730000000000000000000000000000000000000000000000000000602082015250565b6000612b23602683612086565b9150612b2e82612ac7565b604082019050919050565b60006020820190508181036000830152612b5281612b16565b9050919050565b7f45524337323155524953746f726167653a2055524920736574206f66206e6f6e60008201527f6578697374656e7420746f6b656e000000000000000000000000000000000000602082015250565b6000612bb5602e83612086565b9150612bc082612b59565b604082019050919050565b60006020820190508181036000830152612be481612ba8565b9050919050565b7f4552433732313a207472616e736665722066726f6d20696e636f72726563742060008201527f6f776e6572000000000000000000000000000000000000000000000000000000602082015250565b6000612c47602583612086565b9150612c5282612beb565b604082019050919050565b60006020820190508181036000830152612c7681612c3a565b9050919050565b7f4552433732313a207472616e7366657220746f20746865207a65726f2061646460008201527f7265737300000000000000000000000000000000000000000000000000000000602082015250565b6000612cd9602483612086565b9150612ce482612c7d565b604082019050919050565b60006020820190508181036000830152612d0881612ccc565b9050919050565b7f4e487b7100000000000000000000000000000000000000000000000000000000600052601160045260246000fd5b6000612d4982612136565b9150612d5483612136565b925082821015612d6757612d66612d0f565b5b828203905092915050565b6000612d7d82612136565b9150612d8883612136565b9250827fffffffffffffffffffffffffffffffffffffffffffffffffffffffffffffffff03821115612dbd57612dbc612d0f565b5b828201905092915050565b7f4f776e61626c653a2063616c6c6572206973206e6f7420746865206f776e6572600082015250565b6000612dfe602083612086565b9150612e0982612dc8565b602082019050919050565b60006020820190508181036000830152612e2d81612df1565b9050919050565b7f4552433732313a20617070726f766520746f2063616c6c657200000000000000600082015250565b6000612e6a601983612086565b9150612e7582612e34565b602082019050919050565b60006020820190508181036000830152612e9981612e5d565b9050919050565b600081905092915050565b6000612eb68261207b565b612ec08185612ea0565b9350612ed0818560208601612097565b80840191505092915050565b6000612ee88285612eab565b9150612ef48284612eab565b91508190509392505050565b7f4552433732313a207472616e7366657220746f206e6f6e20455243373231526560008201527f63656976657220696d706c656d656e7465720000000000000000000000000000602082015250565b6000612f5c603283612086565b9150612f6782612f00565b604082019050919050565b60006020820190508181036000830152612f8b81612f4f565b9050919050565b6000612f9d82612136565b91507fffffffffffffffffffffffffffffffffffffffffffffffffffffffffffffffff8203612fcf57612fce612d0f565b5b600182019050919050565b7f4e487b7100000000000000000000000000000000000000000000000000000000600052601260045260246000fd5b600061301482612136565b915061301f83612136565b92508261302f5761302e612fda565b5b828204905092915050565b600061304582612136565b915061305083612136565b9250826130605761305f612fda565b5b828206905092915050565b7f4e487b7100000000000000000000000000000000000000000000000000000000600052603260045260246000fd5b7f4552433732313a206d696e7420746f20746865207a65726f2061646472657373600082015250565b60006130d0602083612086565b91506130db8261309a565b602082019050919050565b600060208201905081810360008301526130ff816130c3565b9050919050565b7f4552433732313a20746f6b656e20616c7265616479206d696e74656400000000600082015250565b600061313c601c83612086565b915061314782613106565b602082019050919050565b6000602082019050818103600083015261316b8161312f565b9050919050565b600081519050919050565b600082825260208201905092915050565b600061319982613172565b6131a3818561317d565b93506131b3818560208601612097565b6131bc816120ca565b840191505092915050565b60006080820190506131dc60008301876121cb565b6131e960208301866121cb565b6131f66040830185612472565b8181036060830152613208818461318e565b905095945050505050565b60008151905061322281611fec565b92915050565b60006020828403121561323e5761323d611fb6565b5b600061324c84828501613213565b9150509291505056fea26469706673582212208408b2c4cd722b1e074f20084c69333222503fed179807075e6f44eacf55bbd064736f6c634300080e0033",
  "linkReferences": {},
  "deployedLinkReferences": {}
}